S13800015562344639MAGNETBANDS REDOVISNING 004121204250000000000000
S23800011234567890KARLSSON ALLAN          057035000000010000000000
S23800010987654321JOHANSSON EVERT         064000000000010000000000
S23800011122334455MARKLUND PETRÅNELLA     000000000000190000000000
S33800015562344639MAGNETBANDS REDOVISNING 000003000121035000000000
